:20000000342F830100000000812F000000008B010000000000000000002F9001272F910115
:200020000013011302130313102F810B102F800BD001002A14308011183081111630D00118
:20004000830BD001830AD001830AD001830AD001830AD001830AD001830AD001830AD001AF
:20006000830AD001830AD001830E0313D82C002A3A301F30802A3D304630402A4030D430CB
:20008000082A43306231102A1430F031002F02130212D0194930D0196830D0196830D019E4
:2000A0006830D0196830D0196830D0196830D0196830D0196830D0196830D01968300C30E5
:2000C0000000D0190C30D000D0196830D01BBD309001D0196030D0006D3064309001D0194D
:2000E000C22600000000D0190C30D000D0197A30D01B0C309001D019822600000000D0195E
:200100000C30D000D0198630D01B0C309001D019422600000000D0190C30D000D01992308B
:20012000D01B0C309001D019022600000212D0190C30D000D0199E30D01B0C309001D01995
:20014000111FD0000000D0190C300000D019AA30D01B0C309001D019D11ED0000000D0196E
:200160000C300000D019B630D01B0C309001D019911FD000D101D82C643082114B30D019F2
:200180006E30D0196E30D0196E30D0196E30D0196E30D0196E30D0196E30D0196E30D01927
:2001A0006E30D0196E300C30002F021302129019D7309019F6309019F6309019F6309019C0
:2001C000F6309019F6309019F6309019F6309019F6309019F6309019F6300C30000090193A
:2001E0000C30D0009019F630901B4B3190019019EE30D000FB30F23090019019C226000066
:20020000000090190C30D00090190831901B0C309001901982260000000090190C30D000C9
:2002200090191431901B0C309001901942260000000090190C30D00090192031901B0C30B1
:200240009001901902260000021290190C30D00090192C31901B0C3090019019D11FD0008C
:20026000000090190C30000090193831901B0C3090019019111FD000000090190C30000081
:2002800090194431901B0C3090019019D11ED000D101D82CF2308211D9309019FC3090194E
:2002A000FC309019FC309019FC309019FC309019FC309019FC309019FC309019FC30901996
:2002C000FC300C30002F02130212D0186531D0188431D0188431D0188431D0188431D01884
:2002E0008431D0188431D0188431D0188431D0188431D01884310C300000D0180C30D00008
:20030000D0188431D01AD9319001D0187C31D000893180319001D018C22600000000D018A2
:200320000C30D000D0189631D01A0C309001D018822600000000D0180C30D000D018A2310C
:20034000D01A0C309001D018422600000000D0180C30D000D018AE31D01A0C309001D0183C
:20036000022600000212D0180C30D000D018BA31D01A0C309001D018911FD0000000D01873
:200380000C300000D018C631D01A0C309001D018D11FD0000000D0180C300000D018D231D4
:2003A000D01A0C309001D018111FD000D101D82C803182116731D0188A31D0188A31D018BE
:2003C0008A31D0188A31D0188A31D0188A31D0188A31D0188A31D0188A31D0188A310C30B1
:2003E000002F021302121019F331101912321019123210191232101912321019123210190E
:200400001232101912321019123210191232101912320C30000010190C30D0001019123206
:20042000101B6732900110190A32D00017320E3290011019C2260000000010190C30D000D2
:2004400010192432101B0C309001101982260000000010190C30D00010193032101B0C302D
:200460009001101942260000000010190C30D00010193C32101B0C30900110190226000045
:20048000021210190C30D00010194832101B0C3090011019D11ED000000010190C3000002B
:2004A00010195432101B0C3090011019911FD000000010190C30000010196032101B0C3065
:2004C00090011019D11FD000D101D82C0E328211F531101918321019183210191832101951
:2004E00018321019183210191832101918321019183210191832101918320C30FF3FFF3F48
:20050000FF3FFF3FFF3FFF3FFF3FFF3FFF3FFF3FFF3FFF3FFF3FFF3FFF3FFF3FFF3FFF3FFB
:20052000FF3FFF3FFF3FFF3FFF3FFF3FFF3FFF3FFF3FFF3FFF3FFF3FFF3FFF3FFF3FFF3FDB
:20054000FF3FFF3FFF3FFF3FFF3FFF3FFF3FFF3FFF3FFF3FFF3FFF3FFF3FFF3FFF3FFF3FBB
:20056000FF3FFF3FFF3FFF3FFF3FFF3FFF3FFF3FFF3FFF3FFF3FFF3FFF3FFF3FFF3FFF3F9B
:200FC000FF3FFF3FFF3FFF3FFF3FFF3FFF3FFF3FFF3FFF3FFF3FFF3FFF3F80025A02FE1FF0
:200FE000FF3FFF3FFF3FFF3FFF3FFF3FFF3FFF3FFF3FFF3FFF3FFF3FFF3FFF3FFF3FFF3F11
:00000001FF
