:2000000034178300000000005817000000008B0000000000000000000017900027179100A2
:2000200080098109820983091017C1051017C005B00000121418C0081818C1081618B00030
:20004000C305B0004305B0004305B0004305B0004305B0004305B0004305B0004305B00060
:200060004305B0004305B00043078309D81400123A181F1880123D18461840124018D41858
:2000800008124318621910121418F019001782090209F00C4918F00C6818F00C6818F00C1B
:2000A0006818F00C6818F00C6818F00C6818F00C6818F00C6818F00C6818F00C68180C1838
:2000C0000000F00C0C187000F00C6818F00DBD189000F00C601870006D1864189000F00C41
:2000E000720300000000F00C0C187000F00C7A18F00D0C189000F00C520300000000F00C6F
:200100000C187000F00C8618F00D0C189000F00C320300000000F00C0C187000F00C921899
:20012000F00D0C189000F00C120300000209F00C0C187000F00C9E18F00D0C189000F00C03
:20014000910F70000000F00C0C180000F00CAA18F00D0C189000F00C710F70000000F00C18
:200160000C180000F00CB618F00D0C189000F00CD10F7000B100D8146418C2084B18F00C52
:200180006E18F00C6E18F00C6E18F00C6E18F00C6E18F00C6E18F00C6E18F00C6E18F00C4F
:2001A0006E18F00C6E180C18001782090209D00CD718D00CF618D00CF618D00CF618D00C01
:2001C000F618D00CF618D00CF618D00CF618D00CF618D00CF618D00CF6180C180000D00C95
:2001E0000C187000D00CF618D00D4B199000D00CEE187000FB18F2189000D00C7203000060
:200200000000D00C0C187000D00C0819D00D0C189000D00C520300000000D00C0C1870003F
:20022000D00C1419D00D0C189000D00C320300000000D00C0C187000D00C2019D00D0C188D
:200240009000D00C120300000209D00C0C187000D00C2C19D00D0C189000D00CF10F7000A4
:200260000000D00C0C180000D00C3819D00D0C189000D00C910F70000000D00C0C180000D4
:20028000D00C4419D00D0C189000D00C710F7000B100D814F218C208D918D00CFC18D00C9A
:2002A000FC18D00CFC18D00CFC18D00CFC18D00CFC18D00CFC18D00CFC18D00CFC18D00CBE
:2002C000FC180C18001782090209700C6519700C8419700C8419700C8419700C8419700C5F
:2002E0008419700C8419700C8419700C8419700C8419700C84190C180000700C0C187000B0
:20030000700C8419700DD9199000700C7C197000891980199000700C720300000000700C0C
:200320000C187000700C9619700D0C189000700C520300000000700C0C187000700CA219B5
:20034000700D0C189000700C320300000000700C0C187000700CAE19700D0C189000700CBB
:20036000120300000209700C0C187000700CBA19700D0C189000700CD10F70000000700C85
:200380000C180000700CC619700D0C189000700CF10F70000000700C0C180000700CD219BA
:2003A000700D0C189000700C910F7000B100D8148019C2086719700C8A19700C8A19700C46
:2003C0008A19700C8A19700C8A19700C8A19700C8A19700C8A19700C8A19700C8A190C187D
:2003E000001782090209900CF319900C121A900C121A900C121A900C121A900C121A900C24
:20040000121A900C121A900C121A900C121A900C121A0C180000900C0C187000900C121A74
:20042000900D671A9000900C0A1A7000171A0E1A9000900C720300000000900C0C187000B4
:20044000900C241A900D0C189000900C520300000000900C0C187000900C301A900D0C18A9
:200460009000900C320300000000900C0C187000900C3C1A900D0C189000900C12030000F7
:200480000209900C0C187000900C481A900D0C189000900C710F70000000900C0C18000086
:2004A000900C541A900D0C189000900CD10F70000000900C0C180000900C601A900D0C185E
:2004C0009000900CF10F7000B100D8140E1AC208F519900C181A900C181A900C181A900CDD
:2004E000181A900C181A900C181A900C181A900C181A900C181A900C181A0C18FF1FFF1F96
:20050000FF1FFF1FFF1FFF1FFF1FFF1FFF1FFF1FFF1FFF1FFF1FFF1FFF1FFF1FFF1FFF1FFB
:20052000FF1FFF1FFF1FFF1FFF1FFF1FFF1FFF1FFF1FFF1FFF1FFF1FFF1FFF1FFF1FFF1FDB
:20054000FF1FFF1FFF1FFF1FFF1FFF1FFF1FFF1FFF1FFF1FFF1FFF1FFF1FFF1FFF1FFF1FBB
:20056000FF1FFF1FFF1FFF1FFF1FFF1FFF1FFF1FFF1FFF1FFF1FFF1FFF1FFF1FFF1FFF1F9B
:20058000FF1FFF1FFF1FFF1FFF1FFF1FFF1FFF1FFF1FFF1FFF1FFF1FFF1FFF1FFF1FFF1F7B
:2005A000FF1FFF1FFF1FFF1FFF1FFF1FFF1FFF1FFF1FFF1FFF1FFF1FFF1FFF1FFF1FFF1F5B
:2005C000FF1FFF1FFF1FFF1FFF1FFF1FFF1FFF1FFF1FFF1FFF1FFF1FFF1FFF1FFF1FFF1F3B
:2005E000FF1FFF1FFF1FFF1FFF1FFF1FFF1FFF1FFF1FFF1FFF1FFF1FFF1FFF1FFF1FFF1F1B
:20060000FF1FFF1FFF1FFF1FFF1FFF1FFF1FFF1FFF1FFF1FFF1FFF1FFF1FFF1FFF1FFF1FFA
:20062000FF1FFF1FFF1FFF1FFF1FFF1FFF1FFF1FFF1FFF1FFF1FFF1FFF1FFF1FFF1FFF1FDA
:20064000FF1FFF1FFF1FFF1FFF1FFF1FFF1FFF1FFF1FFF1FFF1FFF1FFF1FFF1FFF1FFF1FBA
:20066000FF1FFF1FFF1FFF1FFF1FFF1FFF1FFF1FFF1FFF1FFF1FFF1FFF1FFF1FFF1FFF1F9A
:20068000FF1FFF1FFF1FFF1FFF1FFF1FFF1FFF1FFF1FFF1FFF1FFF1FFF1FFF1FFF1FFF1F7A
:2006A000FF1FFF1FFF1FFF1FFF1FFF1FFF1FFF1FFF1FFF1FFF1FFF1FFF1FFF1FFF1FFF1F5A
:2006C000FF1FFF1FFF1FFF1FFF1FFF1FFF1FFF1FFF1FFF1FFF1FFF1FFF1FFF1FFF1FFF1F3A
:2006E000FF1FFF1FFF1FFF1FFF1FFF1FFF1FFF1FFF1FFF1FFF1FFF1FFF1FFF1FFF1FFF1F1A
:20070000FF1FFF1FFF1FFF1FFF1FFF1FFF1FFF1FFF1FFF1FFF1FFF1FFF1FFF1FFF1FFF1FF9
:20072000FF1FFF1FFF1FFF1FFF1FFF1FFF1FFF1FFF1FFF1FFF1FFF1FFF1FFF1FFF1FFF1FD9
:20074000FF1FFF1FFF1FFF1FFF1FFF1FFF1FFF1FFF1FFF1FFF1FFF1FFF1FFF1FFF1FFF1FB9
:20076000FF1FFF1FFF1FFF1FFF1FFF1FFF1FFF1FFF1FFF1FFF1FFF1FFF1FFF1FFF1FFF1F99
:20078000FF1FFF1FFF1FFF1FFF1FFF1FFF1FFF1FFF1FFF1FFF1FFF1FFF1FFF1FFF1FFF1F79
:2007A000FF1FFF1FFF1FFF1FFF1FFF1FFF1FFF1FFF1FFF1FFF1FFF1FFF1FFF1FFF1FFF1F59
:2007C000FF1FFF1FFF1FFF1FFF1FFF1FFF1FFF1FFF1FFF1FFF1FFF1FFF1FFF1FFF1FFF1F39
:2007E000FF1FFF1FFF1FFF1FFF1FFF1F6A01FF1FFF1FFF1FFF1FFF1FFF0FFF1FFF1FFD0FEE
:00000001FF
