:20000000342F8301522C432C012C002C122C7A2C002C882C132C0B2C002F9001262F9101D2
:200020000013011302130313102F810B102F800BD001002A14308011183081111630D00118
:20004000830BD001830AD001830AD001830AD001830AD001830AD001830AD001830AD001AF
:20006000830AD001830AD001830E0313D92C002A3A301F30802A3D304930402A4030E330B8
:20008000082A43307D31102A46301732012A1430B132002F02130212D0194C30D0196B3081
:2000A000D0196B30D0196B30D0196B30D0196B30D0196B30D0196B30D0196B30D0196B3020
:2000C000D0196B300C300000D0190C30D000D0196B30D01BCC309001D0196330D000703083
:2000E00067309001D019C22600000000D0190C30D000D0197D30D01B0C309001D019822633
:2001000000000000D0190C30D000D0198930D01B0C309001D019422600000000D0190C301A
:20012000D000D0199530D01B0C309001D019022600000212D0190C30D000D019A130D01BCA
:200140000C309001D019111ED0000000D0190C300000D019AD30D01B0C309001D019111F2E
:20016000D0000000D0190C300000D019B930D01B0C309001D019D11ED0000000D0190C3033
:200180000000D019C530D01B0C309001D019911FD000D101D92C673082114E30D019713057
:2001A000D0197130D0197130D0197130D0197130D0197130D0197130D0197130D0197130EF
:2001C000D01971300C30002F021302129019E63090190531901905319019053190190531C6
:2001E0009019053190190531901905319019053190190531901905310C30000090190C30A4
:20020000D00090190531901B663190019019FD30D0000A31013190019019C2260000000027
:2002200090190C30D00090191731901B0C309001901982260000000090190C30D0009019F1
:200240002331901B0C309001901942260000000090190C30D00090192F31901B0C3090018B
:20026000901902260000021290190C30D00090193B31901B0C3090019019D11FD0000000EE
:2002800090190C30000090194731901B0C3090019019111ED000000090190C3000009019AA
:2002A0005331901B0C3090019019111FD000000090190C30000090195F31901B0C30900103
:2002C0009019D11ED000D101D92C01318211E83090190B3190190B3190190B3190190B316E
:2002E00090190B3190190B3190190B3190190B3190190B3190190B310C30002F021302120C
:20030000D0188031D0189F31D0189F31D0189F31D0189F31D0189F31D0189F31D0189F313C
:20032000D0189F31D0189F31D0189F310C300000D0180C30D000D0189F31D01A0032900100
:20034000D0189731D000A4319B319001D018C22600000000D0180C30D000D018B131D01A73
:200360000C309001D018822600000000D0180C30D000D018BD31D01A0C309001D01842264F
:2003800000000000D0180C30D000D018C931D01A0C309001D018022600000212D0180C3088
:2003A000D000D018D531D01A0C309001D018911FD0000000D0180C300000D018E131D01A58
:2003C0000C309001D018D11FD0000000D0180C300000D018ED31D01A0C309001D018111EB0
:2003E000D0000000D0180C300000D018F931D01A0C309001D018111FD000D101D92C9B31B5
:2004000082118231D018A531D018A531D018A531D018A531D018A531D018A531D018A53164
:20042000D018A531D018A531D018A5310C30002F0213021210191A32101939321019393251
:200440001019393210193932101939321019393210193932101939321019393210193932FC
:200460000C30000010190C30D00010193932101B9A32900110193132D0003E32353290012B
:200480001019C2260000000010190C30D00010194B32101B0C3090011019822600000000A7
:2004A00010190C30D00010195732101B0C309001101942260000000010190C30D00010196E
:2004C0006332101B0C309001101902260000021210190C30D00010196F32101B0C30900133
:2004E0001019D11ED000000010190C30000010197B32101B0C3090011019911FD000000038
:2005000010190C30000010198732101B0C3090011019D11FD000000010190C300000101925
:200520009332101B0C3090011019111ED000D101D92C353282111C3210193F3210193F3283
:2005400010193F3210193F3210193F3210193F3210193F3210193F3210193F3210193F32CB
:200560000C30002F021302121018B4321018D3321018D3321018D3321018D3321018D332F8
:200580001018D3321018D3321018D3321018D3321018D3320C30000010180C30D0001018E2
:2005A000D332101A343390011018CB32D000D832CF3290011018C2260000000010180C300F
:2005C000D0001018E532101A0C309001101882260000000010180C30D0001018F132101A9C
:2005E0000C309001101842260000000010180C30D0001018FD32101A0C30900110180226CC
:200600000000021210180C30D00010180933101A0C3090011018111FD000000010180C30AB
:20062000000010181533101A0C3090011018D11ED000000010180C30000010182133101A62
:200640000C3090011018911FD000000010180C30000010182D33101A0C3090011018D11F2A
:20066000D000D101D92CCF328211B6321018D9321018D9321018D9321018D9321018D93258
:160680001018D9321018D9321018D9321018D9321018D9320C3029
:00000001FF
