:2000000034178300000000005C17000000008B00000000000000000000179000361791008F
:2000200080098109820983091017C1051017C005B00000121418C0081818C1081618B00030
:20004000C305B0004305B0004305B0004305B0004305B0004305B0004305B0004305B00060
:200060004305B0004305B00043078309C91400123A181F1880123D18461840124018D41867
:2000800008124318621901121418F019001782090209F00C4918F00C6818F00C6818F00C2A
:2000A0006818F00C6818F00C6818F00C6818F00C6818F00C6818F00C6818F00C68180C1838
:2000C0000000F00C0C187000F00C6818F00DBD189000F00C601870006D1864189000F00C41
:2000E000720300000000F00C0C187000F00C7A18F00D0C189000F00C520300000000F00C6F
:200100000C187000F00C8618F00D0C189000F00C320300000000F00C0C187000F00C921899
:20012000F00D0C189000F00C120300000209F00C0C187000F00C9E18F00D0C189000F00C03
:20014000110F70000000F00C0C180000F00CAA18F00D0C189000F00C710F70000000F00C98
:200160000C180000F00CB618F00D0C189000F00CD10F7000B100C9146418C2084B18F00C61
:200180006E18F00C6E18F00C6E18F00C6E18F00C6E18F00C6E18F00C6E18F00C6E18F00C4F
:2001A0006E18F00C6E180C18001782090209D00CD718D00CF618D00CF618D00CF618D00C01
:2001C000F618D00CF618D00CF618D00CF618D00CF618D00CF618D00CF6180C180000D00C95
:2001E0000C187000D00CF618D00D4B199000D00CEE187000FB18F2189000D00C7203000060
:200200000000D00C0C187000D00C0819D00D0C189000D00C520300000000D00C0C1870003F
:20022000D00C1419D00D0C189000D00C320300000000D00C0C187000D00C2019D00D0C188D
:200240009000D00C120300000209D00C0C187000D00C2C19D00D0C189000D00CF10F7000A4
:200260000000D00C0C180000D00C3819D00D0C189000D00C110F70000000D00C0C18000054
:20028000D00C4419D00D0C189000D00C710F7000B100C914F218C208D918D00CFC18D00CA9
:2002A000FC18D00CFC18D00CFC18D00CFC18D00CFC18D00CFC18D00CFC18D00CFC18D00CBE
:2002C000FC180C18001782090209700C6519700C8419700C8419700C8419700C8419700C5F
:2002E0008419700C8419700C8419700C8419700C8419700C84190C180000700C0C187000B0
:20030000700C8419700DD9199000700C7C197000891980199000700C720300000000700C0C
:200320000C187000700C9619700D0C189000700C520300000000700C0C187000700CA219B5
:20034000700D0C189000700C320300000000700C0C187000700CAE19700D0C189000700CBB
:20036000120300000209700C0C187000700CBA19700D0C189000700CD10F70000000700C85
:200380000C180000700CC619700D0C189000700CF10F70000000700C0C180000700CD219BA
:2003A000700D0C189000700C110F7000B100C9148019C2086719700C8A19700C8A19700CD5
:2003C0008A19700C8A19700C8A19700C8A19700C8A19700C8A19700C8A19700C8A190C187D
:2003E000001782090209100CF319100C121A100C121A100C121A100C121A100C121A100CA4
:20040000121A100C121A100C121A100C121A100C121A0C180000100C0C187000100C121A74
:20042000100D671A9000100C0A1A7000171A0E1A9000100C720300000000100C0C187000B4
:20044000100C241A100D0C189000100C520300000000100C0C187000100C301A100D0C18A9
:200460009000100C320300000000100C0C187000100C3C1A100D0C189000100C1203000077
:200480000209100C0C187000100C481A100D0C189000100C710F70000000100C0C18000006
:2004A000100C541A100D0C189000100CD10F70000000100C0C180000100C601A100D0C185E
:2004C0009000100CF10F7000B100C9140E1AC208F519100C181A100C181A100C181A100C6C
:2004E000181A100C181A100C181A100C181A100C181A100C181A100C181A0C18FF1FFF1F96
:20050000FF1FFF1FFF1FFF1FFF1FFF1FFF1FFF1FFF1FFF1FFF1FFF1FFF1FFF1FFF1FFF1FFB
:20052000FF1FFF1FFF1FFF1FFF1FFF1FFF1FFF1FFF1FFF1FFF1FFF1FFF1FFF1FFF1FFF1FDB
:20054000FF1FFF1FFF1FFF1FFF1FFF1FFF1FFF1FFF1FFF1FFF1FFF1FFF1FFF1FFF1FFF1FBB
:20056000FF1FFF1FFF1FFF1FFF1FFF1FFF1FFF1FFF1FFF1FFF1FFF1FFF1FFF1FFF1FFF1F9B
:20058000FF1FFF1FFF1FFF1FFF1FFF1FFF1FFF1FFF1FFF1FFF1FFF1FFF1FFF1FFF1FFF1F7B
:2005A000FF1FFF1FFF1FFF1FFF1FFF1FFF1FFF1FFF1FFF1FFF1FFF1FFF1FFF1FFF1FFF1F5B
:2005C000FF1FFF1FFF1FFF1FFF1FFF1FFF1FFF1FFF1FFF1FFF1FFF1FFF1FFF1FFF1FFF1F3B
:2005E000FF1FFF1FFF1FFF1FFF1FFF1FFF1FFF1FFF1FFF1FFF1FFF1FFF1FFF1FFF1FFF1F1B
:20060000FF1FFF1FFF1FFF1FFF1FFF1FFF1FFF1FFF1FFF1FFF1FFF1FFF1FFF1FFF1FFF1FFA
:20062000FF1FFF1FFF1FFF1FFF1FFF1FFF1FFF1FFF1FFF1FFF1FFF1FFF1FFF1FFF1FFF1FDA
:20064000FF1FFF1FFF1FFF1FFF1FFF1FFF1FFF1FFF1FFF1FFF1FFF1FFF1FFF1FFF1FFF1FBA
:20066000FF1FFF1FFF1FFF1FFF1FFF1FFF1FFF1FFF1FFF1FFF1FFF1FFF1FFF1FFF1FFF1F9A
:20068000FF1FFF1FFF1FFF1FFF1FFF1FFF1FFF1FFF1FFF1FFF1FFF1FFF1FFF1FFF1FFF1F7A
:2006A000FF1FFF1FFF1FFF1FFF1FFF1FFF1FFF1FFF1FFF1FFF1FFF1FFF1FFF1FFF1FFF1F5A
:2006C000FF1FFF1FFF1FFF1FFF1FFF1FFF1FFF1FFF1FFF1FFF1FFF1FFF1FFF1FFF1FFF1F3A
:2006E000FF1FFF1FFF1FFF1FFF1FFF1FFF1FFF1FFF1FFF1FFF1FFF1FFF1FFF1FFF1FFF1F1A
:20070000FF1FFF1FFF1FFF1FFF1FFF1FFF1FFF1FFF1FFF1FFF1FFF1FFF1FFF1FFF1FFF1FF9
:20072000FF1FFF1FFF1FFF1FFF1FFF1FFF1FFF1FFF1FFF1FFF1FFF1FFF1FFF1FFF1FFF1FD9
:20074000FF1FFF1FFF1FFF1FFF1FFF1FFF1FFF1FFF1FFF1FFF1FFF1FFF1FFF1FFF1FFF1FB9
:20076000FF1FFF1FFF1FFF1FFF1FFF1FFF1FFF1FFF1FFF1FFF1FFF1FFF1FFF1FFF1FFF1F99
:20078000FF1FFF1FFF1FFF1FFF1FFF1FFF1FFF1FFF1FFF1FFF1FFF1FFF1FFF1FFF1FFF1F79
:2007A000FF1FFF1FFF1FFF1FFF1FFF1FFF1FFF1FFF1FFF1FFF1FFF1FFF1FFF1FFF1FFF1F59
:2007C000FF1FFF1FFF1FFF1FFF1FFF1FFF1FFF1FFF1FFF1FFF1FFF1FFF1FFF1FFF1FFF1F39
:2007E000FF1FFF1FFF1FFF1FFF1FFF1FCA01FF1FFF1FFF1FFF1FFF1FFF0FFF1FFF1FFD0F8E
:00000001FF
