:2000000034178300521443140114001412147A140014881413140B1400179000261791000D
:2000200080098109820983091017C1051017C005B00000121418C0081818C1081618B00030
:20004000C305B0004305B0004305B0004305B0004305B0004305B0004305B0004305B00060
:200060004305B0004305B00043078309D91400123A181F1880123D18491840124018E31845
:20008000081243187D1910124618171A01121418B11A001782090209F00C4C18F00C6B180E
:2000A000F00C6B18F00C6B18F00C6B18F00C6B18F00C6B18F00C6B18F00C6B18F00C6B1848
:2000C000F00C6B180C180000F00C0C187000F00C6B18F00DCC189000F00C6318700070188E
:2000E00067189000F00C720300000000F00C0C187000F00C7D18F00D0C189000F00C52035D
:2001000000000000F00C0C187000F00C8918F00D0C189000F00C320300000000F00C0C18B0
:200120007000F00C9518F00D0C189000F00C120300000209F00C0C187000F00CA118F00D97
:200140000C189000F00C110F70000000F00C0C180000F00CAD18F00D0C189000F00C910F31
:2001600070000000F00C0C180000F00CB918F00D0C189000F00C710F70000000F00C0C1865
:200180000000F00CC518F00D0C189000F00CD10F7000B100D9146718C2084E18F00C7118B7
:2001A000F00C7118F00C7118F00C7118F00C7118F00C7118F00C7118F00C7118F00C711817
:2001C000F00C71180C18001782090209D00CE618D00C0519D00C0519D00C0519D00C051907
:2001E000D00C0519D00C0519D00C0519D00C0519D00C0519D00C05190C180000D00C0C18FF
:200200007000D00C0519D00D66199000D00CFD1870000A1901199000D00C72030000000009
:20022000D00C0C187000D00C1719D00D0C189000D00C520300000000D00C0C187000D00C34
:200240002319D00D0C189000D00C320300000000D00C0C187000D00C2F19D00D0C1890009B
:20026000D00C120300000209D00C0C187000D00C3B19D00D0C189000D00CF10F7000000005
:20028000D00C0C180000D00C4719D00D0C189000D00C110F70000000D00C0C180000D00C49
:2002A0005319D00D0C189000D00C910F70000000D00C0C180000D00C5F19D00D0C18900070
:2002C000D00C710F7000B100D9140119C208E818D00C0B19D00C0B19D00C0B19D00C0B19D0
:2002E000D00C0B19D00C0B19D00C0B19D00C0B19D00C0B19D00C0B190C180017820902092D
:20030000700C8019700C9F19700C9F19700C9F19700C9F19700C9F19700C9F19700C9F195C
:20032000700C9F19700C9F19700C9F190C180000700C0C187000700C9F19700D001A900092
:20034000700C97197000A4199B199000700C720300000000700C0C187000700CB119700D3C
:200360000C189000700C520300000000700C0C187000700CBD19700D0C189000700C3203B4
:2003800000000000700C0C187000700CC919700D0C189000700C120300000209700C0C1882
:2003A0007000700CD519700D0C189000700CD10F70000000700C0C180000700CE119700DD3
:2003C0000C189000700CF10F70000000700C0C180000700CED19700D0C189000700C110F8E
:2003E00070000000700C0C180000700CF919700D0C189000700C910F7000B100D9149B1950
:20040000C2088219700CA519700CA519700CA519700CA519700CA519700CA519700CA519E1
:20042000700CA519700CA519700CA5190C18001782090209900C1A1A900C391A900C391A8F
:20044000900C391A900C391A900C391A900C391A900C391A900C391A900C391A900C391A24
:200460000C180000900C0C187000900C391A900D9A1A9000900C311A70003E1A351A9000CA
:20048000900C720300000000900C0C187000900C4B1A900D0C189000900C520300000000D8
:2004A000900C0C187000900C571A900D0C189000900C320300000000900C0C187000900C11
:2004C000631A900D0C189000900C120300000209900C0C187000900C6F1A900D0C189000EC
:2004E000900C710F70000000900C0C180000900C7B1A900D0C189000900CD10F7000000042
:20050000900C0C180000900C871A900D0C189000900CF10F70000000900C0C180000900C25
:20052000931A900D0C189000900C110F7000B100D914351AC2081C1A900C3F1A900C3F1ABA
:20054000900C3F1A900C3F1A900C3F1A900C3F1A900C3F1A900C3F1A900C3F1A900C3F1AF3
:200560000C18001782090209100CB41A100CD31A100CD31A100CD31A100CD31A100CD31A93
:20058000100CD31A100CD31A100CD31A100CD31A100CD31A0C180000100C0C187000100C3E
:2005A000D31A100D341B9000100CCB1A7000D81ACF1A9000100C720300000000100C0C18A5
:2005C0007000100CE51A100D0C189000100C520300000000100C0C187000100CF11A100D5A
:2005E0000C189000100C320300000000100C0C187000100CFD1A100D0C189000100C120311
:2006000000000209100C0C187000100C091B100D0C189000100C910F70000000100C0C18A2
:200620000000100C151B100D0C189000100C710F70000000100C0C180000100C211B100DDC
:200640000C189000100CD10F70000000100C0C180000100C2D1B100D0C189000100CF10FE9
:200660007000B100D914CF1AC208B61A100CD91A100CD91A100CD91A100CD91A100CD91A9E
:16068000100CD91A100CD91A100CD91A100CD91A100CD91A0C18F5
:00000001FF
