:0207FE00ED0FFD
:2000000034178300E40F001785005214431401140014801470140014E4140C140B145817CB
:2000200091000017900003179B00021763003000E417CA050217CB050A17820007000012B8
:2000400025188A084B090B091E180600EF058909A209A309A409980999099A099C099D0972
:200060009E09A509A609A7090117D105D205D305CE05830993035817C4050317CF050A17F3
:20008000EB05EF07EA05001208176B040117920081093103820912034017EE058009900977
:2000A0009709AD09AC0985093000EC086218ED087918C007100D310342028118D705051796
:2000C000C205851812027318100C6C180417EC050917ED0502038518EE0871180917C20557
:2000E0008518AC0985188509000076184017EE058518100CF503800AE502F0030317EC058B
:200100008518D00503178107C2055817E2081016E3080816E40840167000CE08561ACF07AE
:20012000170000000000D807E905DC0725042908A518D907E905DD0726042908A518DA0736
:20014000E905DE0727042908A5182909E90A03171300A81800005817E2081016E308081619
:20016000E4084016700003171300B4180000EC08C418ED08DB18C007100D31034202E318C5
:20018000D7050517C205E7181202D518100CCE180417EC050917ED050203E718EE08D3189B
:2001A0000917C205E718AC09E71885090000D8184017EE05E718100CF503800AE502F00366
:2001C0000317EC05E718D00503178107C2055817E2081016E3080816E4084016700000009D
:2001E000B0005814E2081016E3080816E4084016CD05E2081016E3080816E4084016CC058A
:200200001317CE05CF07170000000000E2088403D107E20530001819E3086403D207E30550
:2002200000001819E408C403D307E4050E091819CD0758169000CC07E2081016E308081611
:20024000E40840168407CD050000EC083219ED084919C007100D310342025119D7050517AB
:20026000C205551912024319100C3C190417EC050917ED0502035519EE0841190917C205A0
:200280005519AC0955198509000046194017EE055519100CF503800AE502F0030317EC05A5
:2002A0005519D00503178107C205E907170000000017CD190000B2190917131A0917F0194D
:2002C0000917CD190817131A0817F0190817CD190717131A0717F0190717CD190617131ADF
:2002E0000617F0190617CD190517131A0517F0190517CD190417131A0417F0190417CD19F8
:200300000317131A0317F0190317CD190217131A0217F0190217CD190117131A0117F019A6
:200320000117CD190017361A00173C1ACF071700C307AD19CC079000900FAA1900000000A9
:20034000CC079000700FAA1900000000CC079000D00FAA198C098309D6194C079000830974
:200360008C09D319CC079000830908171300B6190000CF07170000000000CD07900F90001C
:20038000421A00000000CD07700F9000421A00000000CD07D00F9000421ACC099000430774
:2003A000CC08D3199000CC08D6199000CC08D9199000CC08DC199000CC08DF199000CC08BB
:2003C000E2199000CC08E5199000CC08E8199000CC08EB19900000008309CD079000421A17
:2003E000CC09900043078309CC08F7199000CC08FA199000CC08FD199000CC08001A9000DF
:20040000CC08031A9000CC08061A9000CC08091A9000CC080C1A9000CC080F1A9000000039
:20042000CD079000421ACC099000430783090000CC081B1A9000CC081E1A9000CC08211A7D
:200440009000CC08241A9000CC08271A9000CC082A1A9000CC082D1A9000CC08301A9000C4
:20046000CC08331A9000CD079000421ACC099000430783099000F719CC09900043079000F1
:200480008309F719CF071700000000000917CF0573035518000000000F17CF05D3035518BF
:2004A000000000000317CF05930355185817E2081016E3080816E4084016CD05EB07220299
:2004C0001700B31A0A17EA080217EB05AB1A681A691AAB1A1E17EB05D007D405940A1409FD
:2004E0001705011468071E0017091000C605A6029B09CD077000DB07DF05A71A3217EB05F3
:20050000D007D505950A15091705011468071E0017091000C705A7029B09CD077000DB0740
:20052000E005A71A0717EB05D007D605960A16091705011468071E0017091000C805A80231
:200540009B09CD077000DB07E1050217C905A81A00002203551803171300AC1ACD07700079
:20056000E40D3500A71A4902CE1A6202C01AD707F014E80597071E00DB055817C405AE1AB8
:20058000620381090A17EB05EF07EA05001208176B04CD07700029025903A71A8909DF07D2
:2005A000DC05E007DD05E107DE05D407D105D507D205CD077000D607D305C607D805C707F1
:0A05C000D905C807DA055518001721
:00000001FF
