:20000000342F8301522C432C012C002C802C702C002CE42C0C2C0B2C582F9101002F9001E7
:20002000D82F8A0B022F8B0B0A2F82010700002A1D300A118B120B1216300600AF0B09132C
:20004000221323132413181319131A131C131D131E13251326132713012F910B920B930B38
:200060008E0B03130327582F840B032F8F0B0A2FAB0BAF0FAA0B002A082FAB08012F92018C
:200080000113092F820B0013101317132D132E132C130513AC115730AD116E30800F101AF6
:2000A000412682207630970B052F820B7A300222683010186130042FAC0B092FAD0B02240F
:2000C0007A30AE116630092F820B7A302C137A30051300006B30402FAE0B7A301018C52730
:2000E0000015C521C027032FAC0B7A30900B032F010F820B582FA211102EA311082EA4110A
:20010000402ED0008E114B328F0F670000000000980FA90B9C0F250829109A30990FA90BEE
:200120009D0F260829109A309A0FA90B9E0F270829109A302912A915032F63009D3000004B
:20014000582FA211102EA311082EA411402ED000032F6300A9300000AC11B930AD11D03078
:20016000800F101A41268220D830970B052F820BDC300222CA301018C330042FAC0B092FEB
:20018000AD0B0224DC30AE11C830092F820BDC302C13DC3005130000CD30402FAE0BDC3059
:2001A0001018C5270015C521C027032FAC0BDC30900B032F010F820B582FA211102EA311BE
:2001C000082EA411402ED0000000D001582CA211102EA311082EA411402E8D0BA211102E1A
:2001E000A311082EA411402E8C0B132F8E0B8F0F670000000000A2110425910FA20B000052
:200200000D31A311C424920FA30B00000D31A4118425930FA40B0E120D318D0F582E9001B7
:200220008C0FA211102EA311082EA411402E040F8D0B0000AC112731AD113E31800F101A7F
:20024000412682204631970B052F820B4A310222383110183131042FAC0B092FAD0B022429
:200260004A31AE113631092F820B4A312C134A31051300003B31402FAE0B4A311018C527A8
:200280000015C521C027032FAC0B4A31900B032F010F820BA90F67000000002FC23100006D
:2002A000A731092F0832092FE531092FC231082F0832082FE531082FC231072F0832072FED
:2002C000E531072FC231062F0832062FE531062FC231052F0832052FE531052FC231042FEB
:2002E0000832042FE531042FC231032F0832032FE531032FC231022F0832022FE531022F99
:20030000C231012F0832012FE531012FC231002F2B32002F31328F0F6700830FA2318C0FF4
:200320009001101F9F31000000008C0F9001D01E9F31000000008C0F9001901F9F310C1379
:200340000313CB318C0E900103130C13C8318C0F90010313082F6300AB3100008F0F670075
:20036000000000008D0F101F90013732000000008D0FD01E90013732000000008D0F901FE9
:20038000900137328C139001830E8C11C83190018C11CB3190018C11CE3190018C11D13185
:2003A00090018C11D43190018C11D73190018C11DA3190018C11DD3190018C11E03190018F
:2003C000000003138D0F900137328C139001830E03138C11EC3190018C11EF3190018C1164
:2003E000F23190018C11F53190018C11F83190018C11FB3190018C11FE3190018C11013217
:2004000090018C110432900100008D0F900137328C139001830E031300008C11103290010A
:200420008C11133290018C11163290018C11193290018C111C3290018C111F3290018C11C2
:20044000223290018C11253290018C11283290018D0F900137328C139001830E03139001AC
:20046000EC318C139001830E90010313EC318F0F670000000000092F8F0BC3264A300000A0
:2004800000000F2F8F0B83274A3000000000032F8F0B03274A30582FA211102EA311082E8E
:2004A000A411402E8D0BAB0F42206700A7320A2FAA11022FAB0BA0325D325E32A0321E2F3A
:2004C000AB0B900F940B14151412170A012CA80E6E0017126000860B46211B138D0FD0004C
:2004E0009B0F9F0B9C32322FAB0B900F950B15151512170A012CA80E6E0017126000870BA6
:2005000047211B138D0FD0009B0FA00B9C32072FAB0B900F960B16151612170A012CA80E33
:200520006E0017126000880B48211B138D0FD0009B0FA10B022F890B9D32000042244A3064
:20054000032F6300A1328D0FD000A6329C328920C232C220B432970FF02CA80B170F6E00B3
:200560009B0B582F840BA332C22401130A2FAB0BAF0FAA0B002A082FAB088D0FD0004920A5
:2005800089269C3209139F0F9C0BA00F9D0BA10F9E0B940F910B950F920B8D0FD000960F2C
:1205A000930B860F980B870F990B880F9A0B4A30002F54
:00000001FF
