:20000000342F8301000000000000522C432C012C002C802C702C002CE42C0C2C0B2C582F39
:200020009101002F9001032F8801022FC3007000E42F8A0B022F8B0B0A2F82010700002AF3
:2000400025300A118B120B121E300600AF0B0913221323132413181319131A131C131D13C7
:200060001E13251326132713012F910B920B930B8E0B03130327582F840B032F8F0B0A2FA9
:20008000AB0BAF0FAA0B002A082FAB08012F92010113412602130226402FAE0B001310134A
:2000A00017132D132C1305137000AC116230AD117930800F101A412682208130970B052F10
:2000C000820B85300222733010186C30042FAC0B092FAD0B02248530AE117130092F820B79
:2000E00085302C138530051300007630402FAE0B85301018C5270015C521C027032FAC0BDD
:200100008530900B032F010F820B582FA211102EA311082EA411402ED0008E1156328F0FA6
:20012000670000000000980FA90B9C0F25082910A530990FA90B9D0F26082910A5309A0F2A
:20014000A90B9E0F27082910A5302912A915032F6300A8300000582FA211102EA311082E39
:20016000A411402ED000032F6300B4300000AC11C430AD11DB30800F101A41268220E330C4
:20018000970B052F820BE7300222D5301018CE30042FAC0B092FAD0B0224E730AE11D330BD
:2001A000092F820BE7302C13E73005130000D830402FAE0BE7301018C5270015C521C027B8
:2001C000032FAC0BE730900B032F010F820B582FA211102EA311082EA411402ED000000060
:2001E000D001582CA211102EA311082EA411402E8D0BA211102EA311082EA411402E8C0B7F
:20020000132F8E0B8F0F670000000000A2110425910FA20B70001831A311C424920FA30B31
:2002200000001831A4118425930FA40B0E1218318D0F582E90018C0FA211102EA311082E34
:20024000A411402E040F8D0B0000AC113231AD114931800F101A412682205131970B052F5E
:20026000820B55310222433110183C31042FAC0B092FAD0B02245531AE114131092F820BC2
:2002800055312C135531051300004631402FAE0B55311018C5270015C521C027032FAC0BF7
:2002A0005531900B032F010F820BA90F67000000002FCD310000B231092F1332092FF03149
:2002C000092FCD31082F1332082FF031082FCD31072F1332072FF031072FCD31062F13325F
:2002E000062FF031062FCD31052F1332052FF031052FCD31042F1332042FF031042FCD3178
:20030000032F1332032FF031032FCD31022F1332022FF031022FCD31012F1332012FF03126
:20032000012FCD31002F3632002F3C328F0F6700830FAD318C0F9001101FAA3100000000B0
:200340008C0F9001D01EAA31000000008C0F9001901FAA310C130313D6318C0E9001031375
:200360000C13D3318C0F90010313082F6300B63100008F0F6700000000008D0F101F900136
:200380004232000000008D0FD01E90014232000000008D0F901F900142328C139001830E49
:2003A0008C11D33190018C11D63190018C11D93190018C11DC3190018C11DF3190018C1188
:2003C000E23190018C11E53190018C11E83190018C11EB319001000003138D0F90014232ED
:2003E0008C139001830E03138C11F73190018C11FA3190018C11FD3190018C1100329001BB
:200400008C11033290018C11063290018C11093290018C110C3290018C110F3290010000CF
:200420008D0F900142328C139001830E031300008C111B3290018C111E3290018C1121325B
:2004400090018C11243290018C11273290018C112A3290018C112D3290018C113032900159
:200460008C11333290018D0F900142328C139001830E03139001F7318C139001830E900166
:200480000313F7318F0F670000000000092F8F0BC3265530000000000F2F8F0B83275530D2
:2004A00000000000032F8F0B03275530582FA211102EA311082EA411402E8D0BAB0F422088
:2004C0006700B3320A2FAA11022FAB0BAB3268326932AB321E2FAB0B900F940B1415141276
:2004E000170A012CA80E6E0017126000860B46211B138D0FD0009B0F9F0BA732322FAB0B2B
:20050000900F950B15151512170A012CA80E6E0017126000870B47211B138D0FD0009B0F12
:20052000A00BA732072FAB0B900F960B16151612170A012CA80E6E0017126000880B4821C1
:200540001B138D0FD0009B0FA10B022F890BA832000042245530032F6300AC328D0FD00042
:2005600000000000A7328920CE32C220C032970FF02CA80B170F6E009B0B582F840BAE3280
:20058000C22401130A2FAB0BAF0FAA0B002A082FAB088D0FD00049208926A73209139F0FC4
:2005A0009C0BA00F9D0BA10F9E0B940F910B950F920B8D0FD000960F930B860F980B870FE7
:0A05C000990B880F9A0B5530002F9D
:00000001FF
