:20000000341783005214431401140014801470140014E4140C140B14581791000017900022
:20002000D817CA050217CB050A178200070000121D188A084B090B0916180600EF05890974
:20004000A209A309A409980999099A099C099D099E09A509A609A7090117D105D205D3051A
:20006000CE05830993035817C4050317CF050A17EB05EF07EA05001208176B040117920025
:2000800081090917C205800990099709AD09AE09AC098509EC085718ED086E18C007100DBB
:2000A000310342027618D7050517C2057A1812026818100C61180417EC050917ED0502039D
:2000C0007A18EE0866180917C2057A18AC097A18850900006B184017EE057A18100CF50359
:2000E000800AE502F0030317EC057A18D00503178107C2055817E2081016E3080816E4084D
:2001000040167000CE084B1ACF07170000000000D807E905DC07250429089A18D907E90567
:20012000DD07260429089A18DA07E905DE07270429089A182909E90A031713009D18000005
:200140005817E2081016E3080816E4084016700003171300A9180000EC08B918ED08D018D5
:20016000C007100D31034202D818D7050517C205DC181202CA18100CC3180417EC05091767
:20018000ED050203DC18EE08C8180917C205DC18AC09DC1885090000CD184017EE05DC1869
:2001A000100CF503800AE502F0030317EC05DC18D00503178107C2055817E2081016E30820
:2001C0000816E408401670000000B0005814E2081016E3080816E4084016CD05E2081016F6
:2001E000E3080816E4084016CC051317CE05CF07170000000000E2088403D107E2050000C9
:200200000D19E3086403D207E30500000D19E408C403D307E4050E090D19CD0758169000FA
:20022000CC07E2081016E3080816E40840168407CD050000EC082719ED083E19C007100DCF
:20024000310342024619D7050517C2054A1912023819100C31190417EC050917ED050203B7
:200260004A19EE0836190917C2054A19AC094A19850900003B194017EE054A19100CF503D1
:20028000800AE502F0030317EC054A19D00503178107C205E907170000000017C219000055
:2002A000A7190917081A0917E5190917C2190817081A0817E5190817C2190717081A07176D
:2002C000E5190717C2190617081A0617E5190617C2190517081A0517E5190517C21904176B
:2002E000081A0417E5190417C2190317081A0317E5190317C2190217081A0217E519021719
:20030000C2190117081A0117E5190117C21900172B1A0017311ACF071700C307A219CC07BC
:200320009000900F9F1900000000CC079000700F9F1900000000CC079000D00F9F198C09AD
:200340008309CB194C07900083098C09C819CC079000830908171300AB190000CF07170076
:2003600000000000CD07900F9000371A00000000CD07700F9000371A00000000CD07D00F42
:200380009000371ACC0990004307CC08C8199000CC08CB199000CC08CE199000CC08D11937
:2003A0009000CC08D4199000CC08D7199000CC08DA199000CC08DD199000CC08E0199000FA
:2003C00000008309CD079000371ACC09900043078309CC08EC199000CC08EF199000CC08F8
:2003E000F2199000CC08F5199000CC08F8199000CC08FB199000CC08FE199000CC08011A99
:200400009000CC08041A90000000CD079000371ACC099000430783090000CC08101A90004C
:20042000CC08131A9000CC08161A9000CC08191A9000CC081C1A9000CC081F1A9000CC08F5
:20044000221A9000CC08251A9000CC08281A9000CD079000371ACC09900043078309900007
:20046000EC19CC099000430790008309EC19CF071700000000000917CF0573034A180000EE
:2004800000000F17CF05D3034A18000000000317CF0593034A185817E2081016E3080816BC
:2004A000E4084016CD05EB0722021700A71A0A17EA080217EB05A01A5D1A5E1AA01A1E1786
:2004C000EB05D007D405940A14091705011468071E0017091000C605A6029B09CD07700078
:2004E000DB07DF059C1A3217EB05D007D505950A15091705011468071E0017091000C7051F
:20050000A7029B09CD077000DB07E0059C1A0717EB05D007D605960A1609170501146807AE
:200520001E0017091000C805A8029B09CD077000DB07E1050217C9059D1A000022034A1821
:2005400003171300A11ACD077000A61A9C1A4902C21A6202B41AD707F014E80597071E0015
:20056000DB055817C405A31A620381090A17EB05EF07EA05001208176B04CD0770002902B2
:2005800059039C1A8909DF07DC05E007DD05E107DE05D407D105D507D205CD077000D607D7
:1205A000D305C607D805C707D905C807DA054A180017F4
:00000001FF
